:10090F00014501202A190302010600000403020613
:10091F00000007060206000008020306000001049B
:10092F0004060000110A040A11001F1F1F1F1F1FBA
:09093F000712FEFDFBF7EFDFBF1C
:100A0B00E4FDFCEF75F006A424192DF8E6FE740A3C
:0F0A1B002DF8A6060DBD00010CED64064C70E42D
:010A2A0022A9
:1008D1007F057E00AD08ED3395E0FCD3EF9DEC6420
:1008E10080F8EE648098401374092FF8E6FD740ACD
:1008F1002FF8A605EF1F70DC1E80D9C3E5086480C0
:0D09010094865009740A2508F8E4F60508EC
:01090E0022C6
:090A9400E510550F600215112256
:03000300020A618D
:100A6100C0E0C0D0E51064106006E51025E0F51087
:050A7100D0D0D0E032FE
:03001300020A4B93
:100A4B00C0E0C0D0E51064016007E510A2E713F524
:060A5B0010D0D0D0E03203
:03000B0002098067
:10098000C0E0C0D075D000C000C004C005C006C023
:1009900007758C3C758AAFD50909120A94854309FD
:1009A0001208D1D007D006D005D004D000D0D0D0C6
:0209B000E03233
:03001B000209B225
:1009B200C0E0C0D075D000C0007590FF740A254415
:1009C200F8E6F5A074122544F8E6F5900544E544EE
:0D09D200B40703754400D000D0D0D0E0324F
:0A0A7600E4F508E54514FF020A0B41
:040A9D0075100422AA
:100A2B00758921758C3C758AAF758D70758B70E4EB
:100A3B00F5B875A88FD288D28AD28CD28ED2B0223A
:030AA100C28C22E2
:0A0A80007F05120A0B120AA180FE86
:0A0A8A007F06120A0B120AA180FE7B
:0609DF007F007E007C4059
:1009E50012088C8F43854309120A9D120A76E51178
:1009F5006009C3E5086480948640F3E5116003054A
:060A05004522120A8022C6
:10094900E4F544120A2B7511047DA01209DF7D809C
:100959001209DF7F007E007D407C401209E57F009F
:100969007E007D007C401209E57F007E007D807C51
:070979003F1209E5020A8AA2
:10088C00EDD2E7CD33EC3392D524814006E4FFFE64
:10089C00FDFC22FCE4CFCECDCC24E0501174FF80C3
:1008AC00EDC3CC13CCCD13CDCE13CECF13CF047060
:0708BC00F030D5DE0208C395
:03000000020800F3
:0C080000787FE4F6D8FD758145020847BA
:0E08C300C3E49FFFE49EFEE49DFDE49CFC2246
:10080C00020949E493A3F8E493A34003F68001F2B0
:10081C0008DFF48029E493A3F85407240CC8C333ED
:10082C00C4540F4420C8834004F456800146F6DFBC
:10083C00E4800B010204081020408090090FE47E34
:10084C00019360BCA3FF543F30E509541FFEE493B1
:10085C00A360010ECF54C025E060A840B8E493A378
:10086C00FAE493A3F8E493A3C8C582C8CAC583CAA3
:10087C00F0A3C8C582C8CAC583CADFE9DEE780BE5B
:0109480000AE
:00000001FF
