:10090F00014601202A190302010600000403020612
:10091F00000007060206000008020306000001049B
:10092F0004060000110A040A11001F1F1F1F1F1FBA
:09093F000710FEFDFBF7EFDFBF1E
:100A2A00E4FFFEE54375F006A424192FF8E6FD74E9
:100A3A00092FF8A6050FBF00010EEF64064E70E3FA
:010A4A002289
:1008D1007F057E00AD08ED3395E0FCD3EF9DEC6420
:1008E10080F8EE648098401374082FF8E6FD7409CF
:1008F1002FF8A605EF1F70DC1E80D9C3E5086480C0
:0D0901009486500974092508F8E4F60508ED
:01090E0022C6
:090A9700E50F550E60021518224E
:03000300020A618D
:100A6100C0E0C0D0E50F64106006E50F25E0F50F8A
:050A7100D0D0D0E032FE
:03001300020A4B93
:100A4B00C0E0C0D0E50F64016007E50FA2E713F526
:060A5B000FD0D0D0E03204
:03000B0002097D6A
:10097D00C0E0C0D075D000C000C004C005C006C026
:10098D0007758C3C758AAFD51709120A97854417E0
:10099D001208D1D007D006D005D004D000D0D0D0C9
:0209AD00E03236
:03001B000209AF28
:1009AF00C0E0C0D075D000C0007590FF7409254518
:1009BF00F8E6F5A074102545F8E6F5900545E545F0
:0D09CF00B40703754500D000D0D0D0E03251
:0B0A7600E4F508E54614F543020A2AE7
:040AA000750F0422A8
:100A0800758921758C3C758AAF758D70758B70E40E
:100A1800F5B875A88FD288D28AD28CD28EF545D2F5
:020A2800B022FA
:030AA400C28C22DF
:0B0A8100754305120A2A120AA480FE29
:0B0A8C00754306120A2A120AA480FE1D
:0609DC007F007E007C415B
:1009E20012088C8F44854417120AA0120A76E51861
:1009F2006009C3E5086480948640F3E51860030546
:060A02004622120A8122C7
:10094900120A087518047DA01209DC7D901209DCD1
:100959007F007E007D707C411209E27F007E007D70
:10096900207C411209E27F007E007DE07C40120973
:04097900E2020A8C00
:10088C00EDD2E7CD33EC3392D524814006E4FFFE64
:10089C00FDFC22FCE4CFCECDCC24E0501174FF80C3
:1008AC00EDC3CC13CCCD13CDCE13CECF13CF047060
:0708BC00F030D5DE0208C395
:03000000020800F3
:0C080000787FE4F6D8FD758146020847B9
:0E08C300C3E49FFFE49EFEE49DFDE49CFC2246
:10080C00020949E493A3F8E493A34003F68001F2B0
:10081C0008DFF48029E493A3F85407240CC8C333ED
:10082C00C4540F4420C8834004F456800146F6DFBC
:10083C00E4800B010204081020408090090FE47E34
:10084C00019360BCA3FF543F30E509541FFEE493B1
:10085C00A360010ECF54C025E060A840B8E493A378
:10086C00FAE493A3F8E493A3C8C582C8CAC583CAA3
:10087C00F0A3C8C582C8CAC583CADFE9DEE780BE5B
:0109480000AE
:00000001FF
