:100DB200202020202A002A2A2A2A2A00202A2A2021
:0E0DC2002A002A202A202000202A2A2A2A007D
:100DD000C2A4C2A3C2A2C2A1C2A0D296D295D294EA
:0B0DE000D293D292D291D290D2B022D6
:100B9300EE7023EF146011146012146013146014C8
:100BA30024047012D2A4800ED2A3800AD2A280069B
:100BB300D2A18002D2A0EC7036EDB4070050309081
:100BC3000BC9F8282873020BDE020BE1020BE402C7
:100BD3000BE7020BEA020BED020BF0C29622C29561
:100BE30022C29422C29322C29222C29122C2902292
:070B2C00E4FDFCAF1DAE1C4F
:100B3300EE7023EF14601114601214601314601428
:100B430024047012C2A4800EC2A3800AC2A280062B
:100B5300C2A18002C2A0EC7036EDB4070050309001
:100B63000B69F8282873020B7E020B81020B8402A7
:100B73000B87020B8A020B8D020B90D29622D29521
:100B830022D29422D29322D29222D29122D29022A2
:060D23008B208A218922C9
:100D2900E4F523F524AB20AA21A922852482852371
:100D3900831209BBB42A0B7D067C00AF24AE2312B3
:100D49000B930524E52470020523D39404E5236459
:050D590080948040D0F1
:010D5E002272
:090E4900E4FDFC7F02FE020B93A4
:100E1900120B2CE51D151D7002151CAF1DAE1C0211
:020E29000B9329
:100E2B00120B2C051DE51D7002051CAF1DAE1C021F
:020E3B000B9317
:100D8C008E298F2AAB05AA04120B33D3EB9401EAFC
:100D9C0064809480400FEB24FFFDEA34FFFCAF2A03
:060DAC00AE29120B932298
:100D5F0020B213D3E51D9400E51C648094804003FA
:100D6F00120E1930B2FD20B313C3E51D9404E51C18
:0D0D7F00648094805003120E2B30B3FD22CF
:100AA200EE702AEF146012146014146016146018A9
:100AB2002404701920A416806D20A311806820A23E
:100AC2000C806320A107805E20A0028059EC705642
:100AD200EDB407005050900ADFF8282873020AF498
:100AE200020AFB020B02020B09020B10020B170295
:100AF2000B1E2096028028802D20950280218026C0
:100B0200209402801A801F20930280138018209262
:100B120002800C80112091028005800A2090057EBF
:0A0B2200007F01228000E4FEFF22A4
:1009E800E4F525F526752700752801AD28AC27AF55
:1009F80026AE25120AA2EF4E600BAD28AC27AF2613
:100A0800AE25120D8C0528E52870020527D394061B
:100A1800E5276480948040D30526E52670020525E5
:100A2800D39404E5256480948040BAE518706AE59B
:100A38001914605414603F14602A14601514705916
:100A48007BFF7A0D79B2120D23E51915197002157D
:100A580018227BFF7A0D79B8120D23E51915197044
:100A6800021518227BFF7A0D79BE120D23E51915A0
:100A78001970021518227BFF7A0D79C4120D23E52F
:100A880019151970021518227BFF7A0D79CA120DF3
:090A980023E51915197002151867
:010AA1002232
:100DEB007D017C00AF1DAE1C120AA2EF4E6008E520
:080DFB001B151B7002151A22E2
:060C9C007E247DF47C487B
:080CA2008F0F8E0E8D0D8C0CDE
:100CAA00E4F513F512F511F510AF0FAE0EAD0DAC5C
:100CBA000CAB13AA12A911A8101208F8501CAF13F2
:100CCA00AE12AD11AC10E4FBFA7980783F12080736
:0A0CDA008F138E128D118C1080CF45
:010CE40022ED
:100E0300E4FDFCAF1DAE1C120AA2EF4E7007AF1D2E
:060E1300AE1C120B93223D
:060BF3007F007E007C443F
:100BF9008F178E168D158C14751C00751D02751AAC
:100C090000751B02751800751905751E00751F09F9
:100C1900120DD07D067C00E4FFFE120B931D0F120E
:100C29000B931D0F120B931D0F120B93E51B451A06
:100C39006006E51F451E70F4E51B451A700280FE2B
:010C49002288
:03000B00020C4A9A
:100C4A00C0E0C0F0C083C082C0D075D000C000C070
:0D0C5A0001C002C003C004C005C006C007F1
:100C6700AF90E48F0BF50AF509F5087590FFFF12B1
:0A0C77000C9C850B907F00120C9C72
:100C8100D007D006D005D004D003D002D001D000C7
:0B0C9100D0D0D082D083D0F0D0E03271
:020E520080FE20
:100CE5007589E0D2A9D28CD2AFE4F58CF58AFF7E66
:100CF500807DBB7C44120BF97D96120BF37D61124E
:100D05000BF37F007E007D167C44120BF97F007E7D
:0E0D1500007D487C42120BF9120DD0020E52E6
:100800000209A6E86480F8E933E83360110460F077
:10081000ED33EC337009E8FCE9FDEAFEEBFF22045E
:1008200060DED3EB9FEA9EE99DE8C2E78CF0C2F759
:1008300095F0400CE8CCF8E9CDF9EACEFAEBCFFB25
:1008400012097185D0F05804700320D5B3E8047004
:10085000075002B2D50209B092D5EC0460F7E4CC9F
:10086000C0E0C398F8603B94186008400DD0E0FBEE
:10087000020988E4FBFAC9FC8028E830E406E4C9F0
:10088000FBE4CAFCE830E305E4C9CACBFCE8540742
:100890006010F8C3E913F9EA13FAEB13FBEC13FC4D
:1008A000D8F130F52FC3E49CFCEF9BFFEE9AFEEDF0
:1008B00099FDD0E0FBEF4E4D4C701222DB03020994
:1008C000ADEC2CFCEF33FFEE33FEED33FDED30E706
:1008D000EB020988EF2BFFEE3AFEED39FDD0E0FB8D
:1008E00050130BBB00030209B0ED13FDEE13FEEF36
:0808F00013FFEC13FC02098860
:1008F80074F8CC6480CCC86480C8F58204604FC3A7
:10090800EB9FF5F0EA9E42F0E99D42F0E89C45F045
:10091800603C501DE5825FFFE582D313CB5BCBF4CF
:100928002B5582FB50280ABA002409B900200880F8
:100938001DE5825BFBE582D313CF5FCFF4C3132F92
:100948005582FF50090EBE00050DBD00010CC3EB1A
:100958009FF5F0EA9E42F0E99D42F0E89C45F06080
:0909680007CC4820E701B3EC22A2
:10097100E9D2E7C933E833F892D5EDD2E7CD33ECCC
:0709810033FC5002B2D52245
:10098800EC30E7100FBF000C0EBE00080DBD0004D0
:100998000BEB6014A2D5EB13FCED92E7FD2274FF7C
:1009A800FCFDFEFF22E480F8A2D574FF13FC7D80D5
:0309B800E480EFE9
:03000000020E3DB0
:0C0E3D00787FE4F6D8FD75812A020CE5F0
:1009BB00BB010CE58229F582E5833AF583E02250F1
:1009CB0006E92582F8E622BBFE06E92582F8E2223B
:0D09DB00E58229F582E5833AF583E4932255
:00000001FF
