:1008D100014D012031190302010600000404030245
:1008E10006000004070602060000040802030600D1
:1008F100000401040406000004110A040A110000A6
:100901001F1F1F1F1F1F1F0710FEFDFBF7EFDFBF7C
:100A3100E4FFFEE54A75F007A424192FF8E6FD74DA
:100A4100092FF8A6050FBF00010EEF64064E70E3F3
:010A51002282
:100912007F057E00AD08ED3395E0FCD3EF9DEC64DE
:1009220080F8EE648098401374082FF8E6FD74098D
:100932002FF8A605EF1F70DC1E80D9C3E50864807E
:0D0942009486500974092508F8E4F60508AC
:01094F002285
:090A8800E50F550E60021518225D
:03000300020A6886
:100A6800C0E0C0D0E50F64106006E50F25E0F50F83
:050A7800D0D0D0E032F7
:03001300020A528C
:100A5200C0E0C0D0E50F64016007E50FA2E713F51F
:060A62000FD0D0D0E032FD
:03000B0002095097
:10095000C0E0C0D075D000C000C004C005C006C053
:1009600007758C3C758AAFD51709120A88854B1715
:10097000120912D007D006D005D004D000D0D0D0B4
:02098000E03263
:03001B000209E2F5
:1009E200C0E0C0D075D000C0007590FF7409254CDE
:1009F200F8E6F5A07410254CF8E6F590054CE54CA8
:0D0A0200B40703754C00D000D0D0D0E03216
:0B0A7D00E4F508E54D14F54A020A31CB
:040AA100750F0422A7
:100A0F00758921758C3C758AAF758D70758B70E407
:100A1F00F5B875A88FD288D28AD28CD28EF54CD2E7
:020A2F00B022F3
:080A9100754A05120A3180FECE
:080A9900754A06120A3180FEC5
:0609B3007F007E007C4184
:1009B90012088C8F4B854B17120AA1120A7D7518E4
:1009C90003E5186009C3E5086480948640F3E518D7
:0909D9006003054D22120A91226F
:10098200120A0F7DA01209B37D901209B37F007E77
:10099200007D707C411209B97F007E007D207C4180
:1009A2001209B97F007E007DE07C401209B9020A7B
:0109B20099AB
:10088C00EDD2E7CD33EC3392D524814006E4FFFE64
:10089C00FDFC22FCE4CFCECDCC24E0501174FF80C3
:1008AC00EDC3CC13CCCD13CDCE13CECF13CF047060
:0708BC00F030D5DE0208C395
:03000000020800F3
:0C080000787FE4F6D8FD75814D020847B2
:0E08C300C3E49FFFE49EFEE49DFDE49CFC2246
:10080C00020982E493A3F8E493A34003F68001F277
:10081C0008DFF48029E493A3F85407240CC8C333ED
:10082C00C4540F4420C8834004F456800146F6DFBC
:10083C00E4800B01020408102040809008D1E47E73
:10084C00019360BCA3FF543F30E509541FFEE493B1
:10085C00A360010ECF54C025E060A840B8E493A378
:10086C00FAE493A3F8E493A3C8C582C8CAC583CAA3
:10087C00F0A3C8C582C8CAC583CADFE9DEE780BE5B
:0109110000E5
:00000001FF
