:10088C0020461803020100000004000000000000D4
:10089C000400000000000004000000000000040040
:1008AC000000000000040000000000000400000034
:1008BC000000000400000000000004000000000024
:1008CC000004000000000000040710FEFDFBF7EF21
:0208DC00DFBF7C
:1009D500E4FFFEE55E75F007A424182FF8E6FD7424
:1009E500092FF8A6050FBF00010EEF64074E70E34F
:0109F50022DF
:1009B2007F057E0074082FF8E6FD74092FF8A6055E
:1009C200EF1F70011EEF4E70EB74092508F8E4F674
:0209D200050816
:0109D4002200
:03000B0002090CDB
:10090C00C0E0C0D075D000C000C005C006C00775DF
:10091C008C3C758AAFD517067517141209B2D0071F
:0B092C00D006D005D000D0D0D0E032C3
:03001B000208DFF9
:1008DF00C0E0C0D075D000C0007590FF74092561CD
:1008EF00F8E6F5A074102561F8E6F5900561E5616D
:0D08FF00B40703756100D000D0D0D0E03206
:0A0A0300E4F55E1209D5E4F50822BF
:10098D00758921758C3C758AAF758D70758B7075F9
:10099D001714E4F5B875A88FD288D28AD28CD28E6E
:0509AD00F561D2B0224B
:0D09F60020B20330B2FD20B30330B3FD2268
:090A0D00E56015607002155F221E
:100937008F688E678D668C65755F0075600275625E
:1009470000756309E560455F6010E5634562600A0D
:0B095700E563156370EE156280EA2274
:10096200120A0312098D7F007E807DBB7C4412092E
:10097200377E007D961209377D611209377D161286
:0B09820009377D487C4212093780FED7
:03000000020800F3
:0C080000787FE4F6D8FD75816802084797
:10080C00020962E493A3F8E493A34003F68001F297
:10081C0008DFF48029E493A3F85407240CC8C333ED
:10082C00C4540F4420C8834004F456800146F6DFBC
:10083C00E4800B010204081020408090088CE47EB8
:10084C00019360BCA3FF543F30E509541FFEE493B1
:10085C00A360010ECF54C025E060A840B8E493A378
:10086C00FAE493A3F8E493A3C8C582C8CAC583CAA3
:10087C00F0A3C8C582C8CAC583CADFE9DEE780BE5B
:0108DE000019
:00000001FF
