:10090F00014501202A190302010600000403020613
:10091F00000007060206000008020306000001049B
:10092F0004060000110A040A11001F1F1F1F1F1FBA
:09093F000710FEFDFBF7EFDFBF1E
:100A2A00E4FDFCEF75F006A424192DF8E6FE74091E
:0F0A3A002DF8A6060DBD00010CED64064C70E40E
:010A4900228A
:1008D1007F057E00AD08ED3395E0FCD3EF9DEC6420
:1008E10080F8EE648098401374082FF8E6FD7409CF
:1008F1002FF8A605EF1F70DC1E80D9C3E5086480C0
:0D0901009486500974092508F8E4F60508ED
:01090E0022C6
:090A9300E50F550E600215182252
:03000300020A608E
:100A6000C0E0C0D0E50F64106006E50F25E0F50F8B
:050A7000D0D0D0E032FF
:03001300020A4A94
:100A4A00C0E0C0D0E50F64016007E50FA2E713F527
:060A5A000FD0D0D0E03205
:03000B0002097D6A
:10097D00C0E0C0D075D000C000C004C005C006C026
:10098D0007758C3C758AAFD51709120A93854317E5
:10099D001208D1D007D006D005D004D000D0D0D0C9
:0209AD00E03236
:03001B000209AF28
:1009AF00C0E0C0D075D000C0007590FF7409254419
:1009BF00F8E6F5A074102544F8E6F5900544E544F3
:0D09CF00B40703754400D000D0D0D0E03252
:0A0A7500E4F508E54514FF020A2A23
:040A9C00750F0422AC
:100A0800758921758C3C758AAF758D70758B70E40E
:100A1800F5B875A88FD288D28AD28CD28EF544D2F6
:020A2800B022FA
:030AA000C28C22E3
:0A0A7F007F05120A2A120AA080FE69
:0A0A89007F06120A2A120AA080FE5E
:0609DC007F007E007C415B
:1009E20012088C8F43854317120A9C120A75E51868
:1009F2006009C3E5086480948640F3E51860030546
:060A02004522120A7F22CA
:10094900120A087518047DA01209DC7D901209DCD1
:100959007F007E007D707C411209E27F007E007D70
:10096900207C411209E27F007E007DE07C40120973
:04097900E2020A8903
:10088C00EDD2E7CD33EC3392D524814006E4FFFE64
:10089C00FDFC22FCE4CFCECDCC24E0501174FF80C3
:1008AC00EDC3CC13CCCD13CDCE13CECF13CF047060
:0708BC00F030D5DE0208C395
:03000000020800F3
:0C080000787FE4F6D8FD758145020847BA
:0E08C300C3E49FFFE49EFEE49DFDE49CFC2246
:10080C00020949E493A3F8E493A34003F68001F2B0
:10081C0008DFF48029E493A3F85407240CC8C333ED
:10082C00C4540F4420C8834004F456800146F6DFBC
:10083C00E4800B010204081020408090090FE47E34
:10084C00019360BCA3FF543F30E509541FFEE493B1
:10085C00A360010ECF54C025E060A840B8E493A378
:10086C00FAE493A3F8E493A3C8C582C8CAC583CAA3
:10087C00F0A3C8C582C8CAC583CADFE9DEE780BE5B
:0109480000AE
:00000001FF
