:10088C0001090120461A03020106000004040302B8
:10089C000600000407060206000004080203060016
:1008AC000004010404060000040000000000000421
:1008BC000000000000000400000000000004000024
:1008CC000000000004000000000000040711FEFD01
:0508DC00FBF7EFDFBF98
:1009EE00E4FFFEE56075F007A4241A2FF8E6FD7407
:1009FE000A2FF8A6050FBF00010EEF64064E70E336
:010A0E0022C5
:100972007F057E0074092FF8E6FD740A2FF8A6059C
:10098200EF1F70011EEF4E70EBC3E5086480948583
:0B0992005009740A2508F8E4F6050877
:01099D002237
:100A0F00E50F60047F0180027F00E5105F6008E55D
:080A1F006215627002156122EC
:03000300020A27C7
:100A2700C0E0C0D0E51064106007E510A2E713F539
:060A370010D0D0D0E03227
:03001300020A3DA1
:100A3D00C0E0C0D0E51064016006E51025E0F510BA
:050A4D00D0D0D0E03222
:03000B000208E206
:1008E200C0E0C0D075D000C000C005C006C007750A
:1008F2008C3C758AAFD5190E751914120972E5650B
:10090200156570021564D007D006D005D000D0D08E
:03091200D0E03200
:03001B0002094592
:10094500C0E0C0D075D000C0007590FF740A256363
:10095500F8E6F5A074112563F8E6F5900563E563FF
:0D096500B40703756300D000D0D0D0E0329D
:0B0A5200E4F508E50914F5600209EE68
:040A660075100422E1
:1009C900758921758C3C758AAF758D70758B7075BD
:1009D9001914E4F5B875A88FD288D28AD28CD28E30
:0509E900F563D2B0220D
:090A5D00C288C28AC28CC28E223A
:040915007F007E00E1
:100919008F6A8E698D688C67120A66120A521209EB
:10092900C9756100756202756400756509E56245FE
:0C093900616006E565456470F405092264
:10099E007F007E807DBB7C441209197D961209155D
:1009AE007D611209157F007E007D161209197F00E8
:0B09BE007E007D487C4212091980FE7B
:03000000020800F3
:0C080000787FE4F6D8FD75816A02084795
:10080C0002099EE493A3F8E493A34003F68001F25B
:10081C0008DFF48029E493A3F85407240CC8C333ED
:10082C00C4540F4420C8834004F456800146F6DFBC
:10083C00E4800B010204081020408090088CE47EB8
:10084C00019360BCA3FF543F30E509541FFEE493B1
:10085C00A360010ECF54C025E060A840B8E493A378
:10086C00FAE493A3F8E493A3C8C582C8CAC583CAA3
:10087C00F0A3C8C582C8CAC583CADFE9DEE780BE5B
:0108E1000016
:00000001FF
