:10088C0001090120461903020106000004040302B9
:10089C000600000407060206000004080203060016
:1008AC000004010404060000040000000000000421
:1008BC000000000000000400000000000004000024
:1008CC000000000004000000000000040711FEFD01
:0508DC00FBF7EFDFBF98
:1009EC00E4FFFEE55F75F007A424192FF8E6FD740B
:1009FC000A2FF8A6050FBF00010EEF64064E70E338
:010A0C0022C7
:100970007F057E0074092FF8E6FD740A2FF8A6059E
:10098000EF1F70011EEF4E70EBC3E5086480948684
:0B0990005009740A2508F8E4F6050879
:01099B002239
:03000300020A23CB
:100A2300C0E0C0D0E51064106006E51025E0F510C5
:050A3300D0D0D0E0323C
:03001300020A0DD1
:100A0D00C0E0C0D0E51064016007E510A2E713F562
:060A1D0010D0D0D0E03241
:03000B000208E206
:1008E200C0E0C0D075D000C000C005C006C007750A
:1008F2008C3C758AAFD51806751814120970E56418
:10090200156470021563D007D006D005D000D0D090
:03091200D0E03200
:03001B0002094394
:10094300C0E0C0D075D000C0007590FF740A256266
:10095300F8E6F5A074112562F8E6F5900562E56204
:0D096300B40703756200D000D0D0D0E032A0
:0B0A3800E4F508E50914F55F0209EC85
:040A4C0075100422FB
:1009C700758921758C3C758AAF758D70758B7075BF
:1009D7001814E4F5B875A88FD288D28AD28CD28E33
:0509E700F562D2B02210
:090A4300E56115617002156022E5
:040915007F007E00E1
:100919008F698E688D678C66120A4C120A38120923
:10092900C7756000756102756300756409E5614505
:0A093900606006E564456370F42277
:10099C007F007E807DBB7C441209197D961209155F
:1009AC007D611209157F007E007D161209197F00EA
:0B09BC007E007D487C4212091980FE7D
:03000000020800F3
:0C080000787FE4F6D8FD75816902084796
:10080C0002099CE493A3F8E493A34003F68001F25D
:10081C0008DFF48029E493A3F85407240CC8C333ED
:10082C00C4540F4420C8834004F456800146F6DFBC
:10083C00E4800B010204081020408090088CE47EB8
:10084C00019360BCA3FF543F30E509541FFEE493B1
:10085C00A360010ECF54C025E060A840B8E493A378
:10086C00FAE493A3F8E493A3C8C582C8CAC583CAA3
:10087C00F0A3C8C582C8CAC583CADFE9DEE780BE5B
:0108E1000016
:00000001FF
