:1008D100014D012031190302010600000404030245
:1008E10006000004070602060000040802030600D1
:1008F100000401040406000004110A040A110000A6
:100901001F1F1F1F1F1F1F0710FEFDFBF7EFDFBF7C
:100A1B00E4FFFEE54A75F007A424192FF8E6FD74F0
:100A2B00092FF8A6050FBF00010EEF64064E70E309
:010A3B002298
:1009CD007F057E0074082FF8E6FD74092FF8A60543
:1009DD00EF1F70011EEF4E70EBC3E5086480948627
:0B09ED00500974092508F8E4F605081D
:0109F80022DC
:090A7200E50F550E600215182273
:03000300020A529C
:100A5200C0E0C0D0E50F64106006E50F25E0F50F99
:050A6200D0D0D0E0320D
:03001300020A3CA2
:100A3C00C0E0C0D0E50F64016007E50FA2E713F535
:060A4C000FD0D0D0E03213
:03000B0002097275
:10097200C0E0C0D075D000C000C005C006C0077579
:100982008C3C758AAFD51709120A72854B1712096A
:0E099200CDD007D006D005D000D0D0D0E032B6
:03001B000209A037
:1009A000C0E0C0D075D000C0007590FF7409254C20
:1009B000F8E6F5A07410254CF8E6F590054CE54CEA
:0D09C000B40703754C00D000D0D0D0E03259
:0B0A6700E4F508E54D14F54A020A1BF7
:040A8B00750F0422BD
:1009F900758921758C3C758AAF758D70758B70E41E
:100A0900F5B875A88FD288D28AD28CD28EF54CD2FD
:020A1900B02209
:080A7B00754A05120A1B80FEFA
:080A8300754A06120A1B80FEF1
:060943007F007E007C41F4
:1009490012088C8F4B854B17120A8B120A67751880
:1009590003E5186009C3E5086480948640F3E51847
:090969006003054D22120A7B22F5
:100912001209F97DA01209437D901209437F007EDE
:10092200007D707C411209497F007E007D207C4160
:100932001209497F007E007DE07C40120949020ACB
:010942008331
:10088C00EDD2E7CD33EC3392D524814006E4FFFE64
:10089C00FDFC22FCE4CFCECDCC24E0501174FF80C3
:1008AC00EDC3CC13CCCD13CDCE13CECF13CF047060
:0708BC00F030D5DE0208C395
:03000000020800F3
:0C080000787FE4F6D8FD75814D020847B2
:0E08C300C3E49FFFE49EFEE49DFDE49CFC2246
:10080C00020912E493A3F8E493A34003F68001F2E7
:10081C0008DFF48029E493A3F85407240CC8C333ED
:10082C00C4540F4420C8834004F456800146F6DFBC
:10083C00E4800B01020408102040809008D1E47E73
:10084C00019360BCA3FF543F30E509541FFEE493B1
:10085C00A360010ECF54C025E060A840B8E493A378
:10086C00FAE493A3F8E493A3C8C582C8CAC583CAA3
:10087C00F0A3C8C582C8CAC583CADFE9DEE780BE5B
:0109110000E5
:00000001FF
