:10088C00204617000102030405060708090A0B0C91
:10089C000D0E0F10111213141E01011E01011E1159
:1008AC0011110F0101011F10100E01011E1010106B
:1008BC001E11110E1E0101020408100E11110E1151
:1008CC00110E0E11110F010101070FFEFDFBF7EFC9
:0208DC00DFBF7C
:10099700E4FFFEE55D75F007A424172FF8E6FD7464
:1009A700082FF8A6050FBF00010EEF64074E70E38E
:0109B700221D
:03000B000208DF09
:1008DF00C0E0C0F0C0D075D000C000C005C006C0D9
:1008EF0007758C3C758AAFD51612751614E55DB475
:1008FF000905755D008002055D120997D007D006C6
:0B090F00D005D000D0D0D0F0D0E032F6
:03001B0002091ABD
:10091A00C0E0C0D075D000C0007590FF7408256093
:10092A00F8E6F5A0740F2560F8E6F5900560E56035
:0D093A00B40703756000D000D0D0D0E032CB
:0609D900E4F55D02099740
:10097200758921758C3C758AAF758D70758B707514
:100982001614E4F5B875A88FD288D28AD28CD28E8A
:05099200F560D2B02267
:1009B8008F668E658D648C63755E00755F027561E8
:1009C80000756209E55F455E6006E562456170F4A1
:0109D80022FC
:100947001209D91209727F007E807DBB7C4412098F
:10095700B87E007D961209B87D611209B87D16121E
:0B09670009B87D487C421209B880FEF0
:03000000020800F3
:0C080000787FE4F6D8FD75816602084799
:10080C00020947E493A3F8E493A34003F68001F2B2
:10081C0008DFF48029E493A3F85407240CC8C333ED
:10082C00C4540F4420C8834004F456800146F6DFBC
:10083C00E4800B010204081020408090088CE47EB8
:10084C00019360BCA3FF543F30E509541FFEE493B1
:10085C00A360010ECF54C025E060A840B8E493A378
:10086C00FAE493A3F8E493A3C8C582C8CAC583CAA3
:10087C00F0A3C8C582C8CAC583CADFE9DEE780BE5B
:0108DE000019
:00000001FF
