:100DB900202020202A002A2A2A2A2A00202A2A201A
:0E0DC9002A002A202A202000202A2A2A2A0076
:0F0E2E007589E0D2A9D28CD2AFE4F58CF58A2277
:100DD700C2A4C2A3C2A2C2A1C2A0D296D295D294E3
:0B0DE700D293D292D291D290D2B022CF
:100C0700EE7023EF14601114601214601314601453
:100C170024047012D2A4800ED2A3800AD2A2800626
:100C2700D2A18002D2A0EC7036EDB407005030900C
:100C37000C3DF8282873020C52020C55020C58027E
:100C47000C5B020C5E020C61020C64C29622C29518
:100C570022C29422C29322C29222C29122C290221D
:070BA000E4FDFCAF15AE14EB
:100BA700EE7023EF146011146012146013146014B4
:100BB70024047012C2A4800EC2A3800AC2A28006B7
:100BC700C2A18002C2A0EC7036EDB407005030908D
:100BD7000BDDF8282873020BF2020BF5020BF80263
:100BE7000BFB020BFE020C01020C04D29622D295DB
:100BF70022D29422D29322D29222D29122D290222E
:060CF3008B1E8A1F892000
:100CF900E4F521F522AB1EAA1FA9208522828521B0
:100D0900831209BB7D067C00AF22AE21B42A0512ED
:100D19000C078003120BA70522E52270020521D3D7
:0A0D29009404E5216480948040CB1F
:010D3300229D
:090E4900E4FDFC7F02FE020C072F
:100E0A00120BA0E515151570021514AF15AE1402D4
:020E1A000C07C3
:100E1C00120BA00515E51570020514AF15AE1402E2
:020E2C000C07B1
:100D93008E278F28AB05AA04120BA7D3EB9401EA85
:100DA30064809480400FEB24FFFDEA34FFFCAF28FE
:060DB300AE27120C07221E
:100D660020B213D3E5159400E51464809480400303
:100D7600120E0A30B2FD20B313C3E5159404E51430
:0D0D8600648094805003120E1C30B3FD22D7
:100AA200EE702AEF146012146014146016146018A9
:100AB2002404701920A416806D20A311806820A23E
:100AC2000C806320A107805E20A0028059EC705642
:100AD200EDB407005050900ADFF8282873020AF498
:100AE200020AFB020B02020B09020B10020B170295
:100AF2000B1E2096028028802D20950280218026C0
:100B0200209402801A801F20930280138018209262
:100B120002800C80112091028005800A2090057EBF
:0A0B2200007F01228000E4FEFF22A4
:1009E800E4F523F524752500752601AD26AC25AF61
:1009F80024AE23120AA2EF4E600BAD26AC25AF241D
:100A0800AE23120D930526E52670020525D394061C
:100A1800E5256480948040D30524E52470020523ED
:100A2800D39404E5236480948040BAE510706AE5A5
:100A38001114605414603F14602A1460151470591E
:100A48007BFF7A0D79B9120CF3E5111511700215B7
:100A580010227BFF7A0D79BF120CF3E51115117086
:100A6800021510227BFF7A0D79C5120CF3E51115DA
:100A78001170021510227BFF7A0D79CB120CF3E569
:100A880011151170021510227BFF7A0D79D1120C05
:090A9800F3E511151170021510AF
:010AA1002232
:100DF2007D017C00AF15AE14120AA2EF4E6008E529
:080E02001315137002151222F2
:080CB0008F0B8E0A8D098C08E0
:100CB800E4F50FF50EF50DF50CAF0BAE0AAD09AC6A
:100CC80008AB0FAA0EA90DA80C1208F8501CAF0FFC
:100CD800AE0EAD0DAC0CE4FBFA7980783F12080734
:0A0CE8008F0F8E0E8D0D8C0C80CF47
:010CF20022DF
:060C67007F007E007C44CA
:100C6D008F1D8E1C8D1B8C1A751400751502751237
:100C7D0000751302751000751105751600751709AD
:100C8D00120DD77D037C007F037E00120C07E51348
:100C9D0045126006E517451670F4E513451270020E
:030CAD0080FE22A4
:03000B00020B2CB9
:100B2C00C0E0C083C082C0D075D000C000C002C07D
:090B3C0003C004C005C006C00797
:100B4500751800751900E4FBFAAD03AC02AF19AED8
:100B550018120AA2EF4E600EAF19AE18120BA7AF0E
:100B650019AE18120C070BBB00010AEB64074A709B
:100B7500D80519E51970020518D39404E5186480A1
:040B8500948040C256
:100B8900D007D006D005D004D003D002D000D0D0F1
:070B9900D082D083D0E032CE
:100D3400120E2E7F007E807DBB7C44120C6D7D964E
:100D4400120C677D61120C677F007E007D167C4467
:100D5400120C6D7F007E007D487C42120C6D120DDA
:020D6400D72294
:100800000209A6E86480F8E933E83360110460F077
:10081000ED33EC337009E8FCE9FDEAFEEBFF22045E
:1008200060DED3EB9FEA9EE99DE8C2E78CF0C2F759
:1008300095F0400CE8CCF8E9CDF9EACEFAEBCFFB25
:1008400012097185D0F05804700320D5B3E8047004
:10085000075002B2D50209B092D5EC0460F7E4CC9F
:10086000C0E0C398F8603B94186008400DD0E0FBEE
:10087000020988E4FBFAC9FC8028E830E406E4C9F0
:10088000FBE4CAFCE830E305E4C9CACBFCE8540742
:100890006010F8C3E913F9EA13FAEB13FBEC13FC4D
:1008A000D8F130F52FC3E49CFCEF9BFFEE9AFEEDF0
:1008B00099FDD0E0FBEF4E4D4C701222DB03020994
:1008C000ADEC2CFCEF33FFEE33FEED33FDED30E706
:1008D000EB020988EF2BFFEE3AFEED39FDD0E0FB8D
:1008E00050130BBB00030209B0ED13FDEE13FEEF36
:0808F00013FFEC13FC02098860
:1008F80074F8CC6480CCC86480C8F58204604FC3A7
:10090800EB9FF5F0EA9E42F0E99D42F0E89C45F045
:10091800603C501DE5825FFFE582D313CB5BCBF4CF
:100928002B5582FB50280ABA002409B900200880F8
:100938001DE5825BFBE582D313CF5FCFF4C3132F92
:100948005582FF50090EBE00050DBD00010CC3EB1A
:100958009FF5F0EA9E42F0E99D42F0E89C45F06080
:0909680007CC4820E701B3EC22A2
:10097100E9D2E7C933E833F892D5EDD2E7CD33ECCC
:0709810033FC5002B2D52245
:10098800EC30E7100FBF000C0EBE00080DBD0004D0
:100998000BEB6014A2D5EB13FCED92E7FD2274FF7C
:1009A800FCFDFEFF22E480F8A2D574FF13FC7D80D5
:0309B800E480EFE9
:03000000020E3DB0
:0C0E3D00787FE4F6D8FD758128020D34A2
:1009BB00BB010CE58229F582E5833AF583E02250F1
:1009CB0006E92582F8E622BBFE06E92582F8E2223B
:0D09DB00E58229F582E5833AF583E4932255
:00000001FF
